{"abi":[{"type":"function","name":"migrate","inputs":[{"name":"_pool","type":"address","internalType":"address"},{"name":"liquidity","type":"uint256","internalType":"uint256"}],"outputs":[{"name":"amountA","type":"uint256","internalType":"uint256"},{"name":"amountB","type":"uint256","internalType":"uint256"}],"stateMutability":"nonpayable"}],"bytecode":{"object":"0x60806040525f80546001600160a01b0319167383fedbed11b3667f40263a88e8435fca51a03f8c179055348015610034575f80fd5b50610603806100425f395ff3fe608060405234801561000f575f80fd5b5060043610610029575f3560e01c8063ad68ebf71461002d575b5f80fd5b61004061003b366004610457565b610059565b6040805192835260208301919091520160405180910390f35b6040516323b872dd60e01b81523360048201526001600160a01b03831660248201819052604482018390525f91829185916323b872dd906064016020604051808303815f875af11580156100af573d5f803e3d5ffd5b505050506040513d601f19601f820116820180604052508101906100d39190610481565b5060405163226bf2d160e21b81523060048201526001600160a01b038216906389afcb449060240160408051808303815f875af1158015610116573d5f803e3d5ffd5b505050506040513d601f19601f8201168201806040525081019061013a91906104a7565b80935081945050505f816001600160a01b0316630dfe16816040518163ffffffff1660e01b8152600401602060405180830381865afa15801561017f573d5f803e3d5ffd5b505050506040513d601f19601f820116820180604052508101906101a391906104c9565b90505f826001600160a01b031663d21220a76040518163ffffffff1660e01b8152600401602060405180830381865afa1580156101e2573d5f803e3d5ffd5b505050506040513d601f19601f8201168201806040525081019061020691906104c9565b90505f816001600160a01b0316836001600160a01b031610610228578161022a565b825b90505f826001600160a01b0316846001600160a01b03161061024c578361024e565b825b6040805160a0810182526001600160a01b038581168083528482166020840152610fa0838501819052600a60608501819052733ca2cd9f71104a6e1b67822454c725fcaee35ff660808601525f54955163095ea7b360e01b81529590931660048601525f196024860152949550909263095ea7b3906044016020604051808303815f875af11580156102e2573d5f803e3d5ffd5b505050506040513d601f19601f820116820180604052508101906103069190610481565b505f5460405163095ea7b360e01b81526001600160a01b0391821660048201525f1960248201529085169063095ea7b3906044016020604051808303815f875af1158015610356573d5f803e3d5ffd5b505050506040513d601f19601f8201168201806040525081019061037a9190610481565b50604080515f8082526020820180845260a0808620835491850186526102571983526102588587015269021e19e0c9bab2400000606086015260808501939093529351632d35e7ed60e11b81529293919283926001600160a01b031691635a6bcfda916103ed9188918890600401610527565b6020604051808303815f875af1158015610409573d5f803e3d5ffd5b505050506040513d601f19601f8201168201806040525081019061042d91906105b6565b5050505050505050505050509250929050565b6001600160a01b0381168114610454575f80fd5b50565b5f8060408385031215610468575f80fd5b823561047381610440565b946020939093013593505050565b5f60208284031215610491575f80fd5b815180151581146104a0575f80fd5b9392505050565b5f80604083850312156104b8575f80fd5b505080516020909101519092909150565b5f602082840312156104d9575f80fd5b81516104a081610440565b5f81518084525f5b81811015610508576020818501810151868301820152016104ec565b505f602082860101526020601f19601f83011685010191505092915050565b5f61014060018060a01b0380875116845280602088015116602085015262ffffff6040880151166040850152606087015160020b606085015280608088015116608085015250845160020b60a0840152602085015160020b60c0840152604085015160e08401526060850151610100840152806101208401526105ac818401856104e4565b9695505050505050565b5f602082840312156105c6575f80fd5b505191905056fea2646970667358221220335c5ea1330ac99602b92dc76e283ba73c164a61b388c768c416df9d80508f0f64736f6c63430008180033","linkReferences":{}},"methodIdentifiers":{"migrate(address,uint256)":"ad68ebf7"},"id":83}